:0400000080313828EB
:100008007E1480318B1E09280A2812280B1D0D2802
:100018000E2812288631EF26803136280B1F152826
:10002800162836282100111E1A281B2826282000E9
:10003800111E1F28202826285D088A005C080A004F
:10004800803136282100911E2A282B2836282000A6
:10005800911E2F28302836285B088A005A080A0083
:10006800803136287E10090080313A28B03084006B
:1000780086308500A0308600003087000030FF0001
:1000880016308631FF268031A43084002030850068
:10009800CC30FE000030FF0087310B278031F9019A
:1000A800FA01FB01DE01DF01E0017E10200086314C
:1000B8007F2E2000BD01BE01B901BA01C301C401F0
:1000C800C101C201BF01C001A430860020308700F1
:1000D8004331A43084002030850002310008BC0080
:1000E8000108BB00A4308600203087004531A430C9
:1000F80084002030850004310008BE000108BD00DE
:100108000B30860021308700600881000130C3076A
:100118000030C43D0B30AF002130B00043082F073A
:10012800B1004408303DB20031088600320887002B
:10013800033081000130C3070030C43D3D35B900AC
:100148003E0DBA000B30AF002130B00043082F0736
:10015800B1004408303DB2003108860032088700FB
:10016800390881000130C3070030C43DC101C20114
:100178000F293B08AF000130AF35890BC028A030EC
:100188002F07B00041353007B100310886008701DC
:10019800403FB200413FB3003308B4000B30B50014
:1001A8002130B60043083507B7004408363DB8008B
:1001B8003708860038088700340881000130C307F3
:1001C8000030C43D3B08AF000130AF35890BE9284A
:1001D800A0302F07B00041353007B1003108860044
:1001E80087010108B2000B30B3002130B400430886
:1001F8003307B5004408343DB60035088600360894
:100208008700320881000130C3070030C43D013047
:10021800C1070030C23D3E084202031D15293D08B2
:100228004102031C18291929BD280B30A0002130D0
:10023800A1004408A3004308A20085318525803128
:1002480020002108C0002008BF004008AF000B3084
:10025800B0002130B10043083007B2004408313DF6
:10026800B30032088600330887002F088100013068
:10027800C3070030C43D0B30AF002130B000430845
:100288002F07B1004408303DB2003108860032081B
:1002980087003F0881000130C3070030C43D873123
:1002A800712780312000C101C2016D290B30AF00D8
:1002B8002130B00041082F0786004208303D8700F2
:1002C800010887311727803101302000C10700302D
:1002D800C23D44084202031D732943084102031C1E
:1002E800762977295A298731742780310800200018
:1002F800BA01BB01BC01BD01B401B501B601B7012A
:10030800A4308600203087004331A4308400203098
:10031800850002310008B9000108B800A430860041
:10032800203087004531A430840020308500043116
:100338000008BB000108BA003835A03E86008701D6
:100348003A08C03F3B08C13F0B3086002130870088
:10035800600881000130BC070030BD3D0B30AF00A4
:100368002130B0003C082F07B1003D08303DB200F5
:100378003108860032088700063081000130BC074A
:100388000030BD3D3908AF000B30B0002130B1005E
:100398003C083007B2003D08313DB3003208860002
:1003A800330887002F0881000130BC070030BD3DAD
:1003B8000B30AF002130B0003C082F07B1003D08DA
:1003C800303DB200310886003208870038088100C5
:1003D8000130BC070030BD3D3B08AF000B30B0001A
:1003E8002130B1003C083007B2003D08313DB30070
:1003F80032088600330887002F0881000130BC07C7
:100408000030BD3D0B30AF002130B0003C082F0755
:10041800B1003D08303DB20031088600320887003F
:100428003A0881000130BC070030BD3D0B30A00008
:100438002130A1003D08A3003C08A2008531852594
:10044800813120002108B5002008B4003508AF002C
:100458000B30B0002130B1003C083007B2003D0835
:10046800313DB30032088600330887002F08810029
:100478000130BC070030BD3D0B30AF002130B0006B
:100488003C082F07B1003D08303DB2003108860016
:1004980032088700340881000130BC070030BD3DB8
:1004A8008731712781312000B601B7016E2A0B30E0
:1004B800AF002130B00036082F0786003708303DDE
:1004C8008700010887311727813101302000B607DE
:1004D8000030B73D3D083702031D742A3C08360238
:1004E800031C772A782A5B2A00000000000000001D
:1004F8000000000008000034C034C1340134C334A3
:1005080003340234C234C63406340734C7340534DD
:10051800C534C4340434CC340C340D34CD340F34E5
:10052800CF34CE340E340A34CA34CB340B34C93405
:1005380009340834C834D83418341934D9341B343D
:10054800DB34DA341A341E34DE34DF341F34DD345D
:100558001D341C34DC341434D434D5341534D73435
:1005680017341634D634D23412341334D334113405
:10057800D134D0341034F03430343134F1343334AD
:10058800F334F23432343634F634F7343734F5345D
:1005980035343434F4343C34FC34FD343D34FF34E5
:1005A8003F343E34FE34FA343A343B34FB34393485
:1005B800F934F83438342834E834E9342934EB345D
:1005C8002B342A34EA34EE342E342F34EF342D34DD
:1005D800ED34EC342C34E43424342534E534273435
:1005E800E734E63426342234E234E3342334E13485
:1005F80021342034E034A03460346134A1346334CD
:10060800A334A23462346634A634A7346734A534DC
:1006180065346434A4346C34AC34AD346D34AF34E4
:100628006F346E34AE34AA346A346B34AB34693404
:10063800A934A83468347834B834B9347934BB343C
:100648007B347A34BA34BE347E347F34BF347D345C
:10065800BD34BC347C34B43474347534B534773434
:10066800B734B63476347234B234B3347334B13404
:1006780071347034B03450349034913451349334EC
:10068800533452349234963456345734973455345C
:100698009534943454349C345C345D349D345F34E4
:1006A8009F349E345E345A349A349B345B34993484
:1006B80059345834983488344834493489344B345C
:1006C8008B348A344A344E348E348F344F348D34DC
:1006D8004D344C348C344434843485344534873434
:1006E8004734463486348234423443348334413484
:1006F8008134803440340034C1348134403401348E
:10070800C034803441340134C0348034413400343E
:10071800C134813440340134C0348034413400342D
:10072800C134813440340034C1348134403401341C
:10073800C034803441340134C0348034413400340E
:10074800C134813440340034C134813440340134FC
:10075800C034803441340034C134813440340134ED
:10076800C034803441340134C034803441340034DE
:10077800C134813440340134C034803441340034CD
:10078800C134813440340034C134813440340134BC
:10079800C034803441340034C134813440340134AD
:1007A800C034803441340134C0348034413400349E
:1007B800C134813440340034C1348134403401348C
:1007C800C034803441340134C0348034413400347E
:1007D800C134813440340134C0348034413400346D
:1007E800C134813440340034C1348134403401345C
:1007F800C034803441340134C0348034413400344E
:10080800C134813440340034C1348134403401343B
:10081800C034803441340034C1348134403401342C
:10082800C034803441340134C0348034413400341D
:10083800C134813440340034C1348134403401340B
:10084800C034803441340134C034803441340034FD
:10085800C134813440340134C034803441340034EC
:10086800C134813440340034C134813440340134DB
:10087800C034803441340034C134813440340134CC
:10088800C034803441340134C034803441340034BD
:10089800C134813440340134C034803441340034AC
:1008A800C134813440340034C1348134403401349B
:1008B800C034803441340134C0348034413400348D
:1008C800C134813440340034C1348134403401347B
:1008D800C034803441340034C1348134403401346C
:1008E800C034803441340134C0348034413400345D
:1008F800C134813440340830860021308700010833
:10090800031D872C882C892C2E2DA430860020309E
:10091800870001082000C5004508D100A4308600E2
:100928002030870041310108C5004508CE00A430B9
:10093800A0002030A100093086002130870001087E
:10094800FE3EA200FF3003180030A3008531852544
:10095800843120002108CD002008CC000930860011
:10096800213087000108C500C601A230C700203029
:10097800C8004508470786004608483D8700010823
:10098800C900CA014908CA00C9014908CF004A0874
:10099800D00009308600213087000108C500C60153
:1009A800A330C7002030C80045084707860046081E
:1009B800483D870001084F07C90050080318500A2E
:1009C800CA004908CF004A08D00050084D06031D48
:1009D800EF2C4F084C06031DF22CF32C242D600835
:1009E8005106031DF82CF92C242D022D80315D2091
:1009F8008431242D81317B218431242D4E08C5007A
:100A0800C6014608003A03190A2D242D4508003A64
:100A18000319242D013A0319242D033A0319242D0F
:100A2800013A0319FA2C073A0319242D013A03193C
:100A3800242D033A0319FE2C013A0319242D242DE1
:100A48000930860021308700810108308600213076
:100A58008700810108008731602785317108F80017
:100A68007008F70023001908F2007208F6007708EA
:100A7800643E86000030783D87000103031D452D44
:100A8800462D472D842D7708653E86000030783D39
:100A980087000108F200F30172087707F400730871
:100AA800783DF5007408860075088700760881008F
:100AB8000130F2007708653E86000030783D8700F7
:100AC800720881077708CB3E86000030783D8700A2
:100AD80081017708653E86000030783D8700010374
:100AE800031D772D782D842D7708663EF20000309F
:100AF800783DF30072088600730887000130810092
:100B08000800FF302000A4002408AD00FF30A40036
:100B18002408AE00BE2D20088600210887000108A1
:100B28002D06A400A501A601A7012708AC002608E8
:100B3800AB002508AA002408A9000130A00700304E
:100B4800A13D2A088500290884007F308407833066
:100B5800853D00082E06A4002408AD002A0885005B
:100B6800290884007F3084078230853D0008A4006E
:100B78002408AE000130A2020030A33B220A031D64
:100B8800C92D230A031DC92DCA2D8F2D2E08A40097
:100B9800A5012D08A600A7012608A700A60124087C
:100BA8002604A00025082704A10008008731602733
:100BB80085317108F5007008F40001302000DE0767
:100BC8000030DF3D7408663E86000030753D8700C2
:100BD80001080319F02DF12D1A2E0130F2007408C6
:100BE800CB3E86000030753D870072088107740887
:100BF800CB3E86000030753D870008300102031C9B
:100C0800062E072E1A2E7408663E86000030753DA3
:100C1800870081017408643EF2000030753DF300DE
:100C280072088600730887000130810008002100DF
:100C3800911256302000A0000630A10087314827C5
:100C480086312100111277302000A0000730A10062
:100C5800873142278631083023009F0090309D005D
:100C680024309E00A0309B0001309C007A30200088
:100C7800A0000730A1008731542786316930200051
:100C8800A0000730A10087314E2786316D30200043
:100C9800A0000730A10087315A278631FB012100C7
:100CA80091160800FB0123001D1D5B2E5C2E632E90
:100CB800FB14200059088A0058080A0086312300CE
:100CC8009D1C672E682E6F2E7B15200057088A0002
:100CD80056080A0086317B080319732E742E7B2E62
:100CE800200055088A0054080A0086317E2E853176
:100CF8002F25863108008631DC26863186311B2671
:100D080086318631C62686318631992686318731E5
:100D1800742786318731232786318B170B17843147
:100D28007F248631932E8031382822008C018D0152
:100D3800F73021008C00FE308D00C83023008D0074
:100D480004308C0024008D018C01210095172200AD
:100D58009D0101309E000800003400340134003445
:100D680002340034033400340434003405340034CD
:100D780006340034073400340834003409340034AD
:100D88000A34003421001508C03917389500F030AE
:100D980020009500F030A2002208FC000B118B16F1
:100DA800DA30A0000530A10087313C2786310800E1
:100DB80086319926863187312E27863187316527F6
:100DC80086318631C6268631873135278631863188
:100DD8001B26863108000B117C082000950052085C
:100DE80053040319F82EF92EFE2E53088A005208D0
:100DF8000A0086310800FE0012001E000130FE02C3
:100E08000030FF3B7F087E04031D002F0034640080
:100E1800800101310130FE020030FF3B7F087E0473
:100E2800031D0C2F00342000A000200823009A0086
:100E380021001116111A212F222F1E2F080004300D
:100E48002000A0002008E0000A308600213087003A
:100E5800810108007A30210099009801220096014A
:100E6800080021009E019B019C0101309D000800A3
:100E780020002108D3002008D20008002000210803
:100E8800DD002008DC00080020002108DB00200825
:100E9800DA00080020002108D7002008D600080042
:100EA80020002108D9002008D800080020002108C7
:100EB800D5002008D40008002030F100A430F0004C
:100EC8000800163021009700080023001D121D1687
:100ED800080085312F258731080022000D140800ED
:0E0EE80022000D100800210011120800080061
:020000040001F9
:04000E00E43FFF3E8E
:00000001FF
